{
  "contractName": "Queue",
  "abi": [
    {
      "inputs": [],
      "stateMutability": "nonpayable",
      "type": "constructor"
    },
    {
      "inputs": [],
      "name": "enter",
      "outputs": [],
      "stateMutability": "nonpayable",
      "type": "function"
    },
    {
      "inputs": [
        {
          "internalType": "bool",
          "name": "personPresent",
          "type": "bool"
        }
      ],
      "name": "next",
      "outputs": [],
      "stateMutability": "nonpayable",
      "type": "function"
    },
    {
      "inputs": [
        {
          "internalType": "address",
          "name": "newAdmin",
          "type": "address"
        }
      ],
      "name": "addAdmin",
      "outputs": [
        {
          "internalType": "bool",
          "name": "",
          "type": "bool"
        }
      ],
      "stateMutability": "nonpayable",
      "type": "function"
    },
    {
      "inputs": [
        {
          "internalType": "address",
          "name": "exile",
          "type": "address"
        }
      ],
      "name": "removeAdmin",
      "outputs": [
        {
          "internalType": "bool",
          "name": "",
          "type": "bool"
        }
      ],
      "stateMutability": "nonpayable",
      "type": "function"
    },
    {
      "inputs": [
        {
          "internalType": "uint256",
          "name": "pos",
          "type": "uint256"
        }
      ],
      "name": "getPersonAt",
      "outputs": [
        {
          "internalType": "address",
          "name": "",
          "type": "address"
        }
      ],
      "stateMutability": "view",
      "type": "function",
      "constant": true
    },
    {
      "inputs": [],
      "name": "getPosition",
      "outputs": [
        {
          "internalType": "uint256",
          "name": "",
          "type": "uint256"
        }
      ],
      "stateMutability": "view",
      "type": "function",
      "constant": true
    },
    {
      "inputs": [],
      "name": "getAll",
      "outputs": [
        {
          "internalType": "address[]",
          "name": "",
          "type": "address[]"
        }
      ],
      "stateMutability": "view",
      "type": "function",
      "constant": true
    }
  ],
  "bytecode": "0x608060405234801561001057600080fd5b506001600260003373ffffffffffffffffffffffffffffffffffffffff1673ffffffffffffffffffffffffffffffffffffffff16815260200190815260200160002060006101000a81548160ff0219169083151502179055506001600360006101000a81548161ffff021916908361ffff160217905550610850806100966000396000f3fe608060405234801561001057600080fd5b506004361061007d5760003560e01c80637398ab181161005b5780637398ab181461019957806389f650fd146101b7578063e4507608146101e7578063e97dcb62146102555761007d565b80631785f53c1461008257806353ed5143146100de578063704802751461013d575b600080fd5b6100c46004803603602081101561009857600080fd5b81019080803573ffffffffffffffffffffffffffffffffffffffff16906020019092919050505061025f565b604051808215151515815260200191505060405180910390f35b6100e661038a565b6040518080602001828103825283818151815260200191508051906020019060200280838360005b8381101561012957808201518184015260208101905061010e565b505050509050019250505060405180910390f35b61017f6004803603602081101561015357600080fd5b81019080803573ffffffffffffffffffffffffffffffffffffffff169060200190929190505050610474565b604051808215151515815260200191505060405180910390f35b6101a16105ae565b6040518082815260200191505060405180910390f35b6101e5600480360360208110156101cd57600080fd5b810190808035151590602001909291905050506105f9565b005b610213600480360360208110156101fd57600080fd5b81019080803590602001909291905050506106f8565b604051808273ffffffffffffffffffffffffffffffffffffffff1673ffffffffffffffffffffffffffffffffffffffff16815260200191505060405180910390f35b61025d61073f565b005b6000600260003373ffffffffffffffffffffffffffffffffffffffff1673ffffffffffffffffffffffffffffffffffffffff16815260200190815260200160002060009054906101000a900460ff16610303576040517f08c379a000000000000000000000000000000000000000000000000000000000815260040180806020018281038252602d8152602001806107ee602d913960400191505060405180910390fd5b6001600360009054906101000a900461ffff1661ffff16116103285760009050610385565b6000600260008473ffffffffffffffffffffffffffffffffffffffff1673ffffffffffffffffffffffffffffffffffffffff16815260200190815260200160002060006101000a81548160ff021916908315150217905550600190505b919050565b606060006004546000805490500390506060816040519080825280602002602001820160405280156103cb5781602001602082028038833980820191505090505b50905060008090505b8281101561046b5760006004548201815481106103ed57fe5b9060005260206000200160009054906101000a900473ffffffffffffffffffffffffffffffffffffffff1682828151811061042457fe5b602002602001019073ffffffffffffffffffffffffffffffffffffffff16908173ffffffffffffffffffffffffffffffffffffffff168152505080806001019150506103d4565b50809250505090565b6000600260003373ffffffffffffffffffffffffffffffffffffffff1673ffffffffffffffffffffffffffffffffffffffff16815260200190815260200160002060009054906101000a900460ff16610518576040517f08c379a000000000000000000000000000000000000000000000000000000000815260040180806020018281038252602d8152602001806107ee602d913960400191505060405180910390fd5b6001600260008473ffffffffffffffffffffffffffffffffffffffff1673ffffffffffffffffffffffffffffffffffffffff16815260200190815260200160002060006101000a81548160ff0219169083151502179055506003600081819054906101000a900461ffff168092919060010191906101000a81548161ffff021916908361ffff1602179055505060019050919050565b6000600454600160003373ffffffffffffffffffffffffffffffffffffffff1673ffffffffffffffffffffffffffffffffffffffff1681526020019081526020016000205403905090565b600260003373ffffffffffffffffffffffffffffffffffffffff1673ffffffffffffffffffffffffffffffffffffffff16815260200190815260200160002060009054906101000a900460ff1661069b576040517f08c379a000000000000000000000000000000000000000000000000000000000815260040180806020018281038252602d8152602001806107ee602d913960400191505060405180910390fd5b80156106f4576000600454815481106106b057fe5b9060005260206000200160006101000a81549073ffffffffffffffffffffffffffffffffffffffff02191690556004600081548092919060010191905055506106f5565b5b50565b60008060016004548401038154811061070d57fe5b9060005260206000200160009054906101000a900473ffffffffffffffffffffffffffffffffffffffff169050919050565b6000339080600181540180825580915050600190039060005260206000200160009091909190916101000a81548173ffffffffffffffffffffffffffffffffffffffff021916908373ffffffffffffffffffffffffffffffffffffffff160217905550600080549050600160003373ffffffffffffffffffffffffffffffffffffffff1673ffffffffffffffffffffffffffffffffffffffff1681526020019081526020016000208190555056fe4f6e6c792061646d696e732061726520616c6c6f77656420746f2063616c6c20746869732066756e6374696f6ea2646970667358221220c6ad650fd0620d6eff30b9066d2fb0e159d755673f19979c4a351347205e577064736f6c63430006000033",
  "source": "pragma solidity >=0.6.0 <0.7.0;\n\ncontract Queue {\n\n  address[] addressAt;\n  mapping (address => uint) private addressToPositon;\n\n  mapping (address => bool) private admins;\n  uint16 private adminCount;\n\n  modifier onlyAdmins {\n    require(admins[msg.sender], \"Only admins are allowed to call this function\");\n    _;\n  }\n\n  uint currentPosition;\n\n  constructor() public {\n    admins[msg.sender] = true;\n    adminCount = 1;\n  }\n\n  function enter() public {\n    //require(addressToPositon[msg.sender] == 0);\n    addressAt.push(msg.sender);\n    addressToPositon[msg.sender] = addressAt.length;\n  }\n\n  function next(bool personPresent) public onlyAdmins {\n    if(personPresent) {\n      delete addressAt[currentPosition];\n      currentPosition++;\n    } else {\n      // Not sure what to do exactly\n    }\n  }\n\n  function addAdmin(address newAdmin) public onlyAdmins returns ( bool ){\n    admins[newAdmin] = true;\n    adminCount++;\n    return true;\n  }\n\n  function removeAdmin(address exile) public onlyAdmins returns ( bool ){\n    if(adminCount <= 1) return false;\n    admins[exile] = false;\n    return true;\n  }\n\n  function getPersonAt(uint pos) public view returns ( address ) {\n    return addressAt[pos + currentPosition - 1];\n  }\n\n  function getPosition() public view returns (uint) {\n    return addressToPositon[ msg.sender ] - currentPosition;\n  }\n\n  function getAll() public view returns (address[] memory) {\n    uint returnSize = addressAt.length - currentPosition;\n    address[] memory result = new address[](returnSize);\n    for(uint i = 0; i < returnSize; i++) \n    {\n      result[i] = addressAt[i + currentPosition];\n    }\n    return result;\n  }\n}\n",
  "sourcePath": "/home/sisyphus/Dev/BlockChainTraining/GithubRepo/QueueManagement/contracts/Queue.sol",
  "compiler": {
    "name": "solc",
    "version": "0.6.0+commit.26b70077.Emscripten.clang"
  },
  "schemaVersion": "3.2.3",
  "updatedAt": "2020-08-27T22:51:32.789Z",
  "networkType": "ethereum",
  "devdoc": {
    "methods": {}
  },
  "userdoc": {
    "methods": {}
  }
}