{
  "contractName": "Queue",
  "abi": [
    {
      "inputs": [],
      "name": "enter",
      "outputs": [],
      "stateMutability": "nonpayable",
      "type": "function"
    },
    {
      "inputs": [
        {
          "internalType": "bool",
          "name": "personPresent",
          "type": "bool"
        }
      ],
      "name": "next",
      "outputs": [],
      "stateMutability": "nonpayable",
      "type": "function"
    },
    {
      "inputs": [
        {
          "internalType": "uint256",
          "name": "pos",
          "type": "uint256"
        }
      ],
      "name": "getPersonAt",
      "outputs": [
        {
          "internalType": "address",
          "name": "",
          "type": "address"
        }
      ],
      "stateMutability": "view",
      "type": "function",
      "constant": true
    },
    {
      "inputs": [],
      "name": "getPosition",
      "outputs": [
        {
          "internalType": "uint256",
          "name": "",
          "type": "uint256"
        }
      ],
      "stateMutability": "view",
      "type": "function",
      "constant": true
    },
    {
      "inputs": [],
      "name": "getAll",
      "outputs": [
        {
          "internalType": "address[]",
          "name": "",
          "type": "address[]"
        }
      ],
      "stateMutability": "view",
      "type": "function",
      "constant": true
    }
  ],
  "bytecode": "0x608060405234801561001057600080fd5b50610486806100206000396000f3fe608060405234801561001057600080fd5b50600436106100575760003560e01c806353ed51431461005c5780637398ab18146100bb57806389f650fd146100d9578063e450760814610109578063e97dcb6214610177575b600080fd5b610064610181565b6040518080602001828103825283818151815260200191508051906020019060200280838360005b838110156100a757808201518184015260208101905061008c565b505050509050019250505060405180910390f35b6100c361026b565b6040518082815260200191505060405180910390f35b610107600480360360208110156100ef57600080fd5b810190808035151590602001909291905050506102b2565b005b6101356004803603602081101561011f57600080fd5b810190808035906020019092919050505061030f565b604051808273ffffffffffffffffffffffffffffffffffffffff1673ffffffffffffffffffffffffffffffffffffffff16815260200191505060405180910390f35b61017f610356565b005b606060006002546000805490500390506060816040519080825280602002602001820160405280156101c25781602001602082028038833980820191505090505b50905060008090505b828110156102625760006002548201815481106101e457fe5b9060005260206000200160009054906101000a900473ffffffffffffffffffffffffffffffffffffffff1682828151811061021b57fe5b602002602001019073ffffffffffffffffffffffffffffffffffffffff16908173ffffffffffffffffffffffffffffffffffffffff168152505080806001019150506101cb565b50809250505090565b6000600160003373ffffffffffffffffffffffffffffffffffffffff1673ffffffffffffffffffffffffffffffffffffffff16815260200190815260200160002054905090565b801561030b576000600254815481106102c757fe5b9060005260206000200160006101000a81549073ffffffffffffffffffffffffffffffffffffffff021916905560026000815480929190600101919050555061030c565b5b50565b60008060016002548401038154811061032457fe5b9060005260206000200160009054906101000a900473ffffffffffffffffffffffffffffffffffffffff169050919050565b6000600160003373ffffffffffffffffffffffffffffffffffffffff1673ffffffffffffffffffffffffffffffffffffffff16815260200190815260200160002054146103a257600080fd5b6000339080600181540180825580915050600190039060005260206000200160009091909190916101000a81548173ffffffffffffffffffffffffffffffffffffffff021916908373ffffffffffffffffffffffffffffffffffffffff160217905550600080549050600160003373ffffffffffffffffffffffffffffffffffffffff1673ffffffffffffffffffffffffffffffffffffffff1681526020019081526020016000208190555056fea26469706673582212209dfccf4188c7f36d889021755141503b4a59d53c53fe2c2cda126150fb61547f64736f6c63430006000033",
  "source": "pragma solidity >=0.6.0 <0.7.0;\n\ncontract Queue {\n\n  address[] addressAt;\n  mapping (address => uint) private addressToPositon;\n\n  uint currentPosition;\n\n  function enter() public {\n    require(addressToPositon[msg.sender] == 0);\n    addressAt.push(msg.sender);\n    addressToPositon[msg.sender] = addressAt.length;\n  }\n\n  function next(bool personPresent) public {\n    if(personPresent) {\n      delete addressAt[currentPosition];\n      currentPosition++;\n    } else {\n      // Not sure what to do exactly\n    }\n  }\n\n  function getPersonAt(uint pos) public view returns ( address ) {\n    return addressAt[pos + currentPosition - 1];\n  }\n\n  function getPosition() public view returns (uint) {\n    return addressToPositon[ msg.sender ];\n  }\n\n  function getAll() public view returns (address[] memory) {\n    uint returnSize = addressAt.length - currentPosition;\n    address[] memory result = new address[](returnSize);\n    for(uint i = 0; i < returnSize; i++) {\n      result[i] = addressAt[i + currentPosition];\n    }\n    return result;\n  }\n}\n",
  "sourcePath": "/home/sisyphus/Dev/BlockChainTraining/GithubRepo/QueueManagement/contracts/Queue.sol",
  "compiler": {
    "name": "solc",
    "version": "0.6.0+commit.26b70077.Emscripten.clang"
  },
  "schemaVersion": "3.2.3",
  "updatedAt": "2020-07-30T08:55:50.604Z",
  "networkType": "ethereum",
  "devdoc": {
    "methods": {}
  },
  "userdoc": {
    "methods": {}
  }
}